:100000000C9469000C9401090C94DA080C9491008A
:100010000C9491000C9491000C9491000C9428097C
:100020000C9491000C9491000C9491000C940B0A88
:100030000C9491000C9491000C9491000C949100FC
:100040000C9490080C9491000C945E080C94380861
:100050000C9491000C9491000C9491000C949100DC
:100060000C9491000C9491006B04710477047D044E
:10007000830489048F040000000023002600290067
:1000800000000000240027002A00000000002500D6
:1000900028002B00040404040404040402020202E5
:1000A000020203030303030301020408102040803B
:1000B00001020408102001020408102000000008BA
:1000C000000201000003040700000000000000001F
:1000D000CC0A11241FBECFEFD8E0DEBFCDBF11E0A8
:1000E000A0E0B1E0E4E1F6E202C005900D92AA3290
:1000F000B107D9F723E0AAE2B1E001C01D92A53112
:10010000B207E1F710E0C9E6D0E004C02197FE0194
:100110000E94D011C836D107C9F70E94770D0C9400
:1001200008130C940000CF92DF92EF92FF92DC0153
:10013000A03282E0B8070CF03EC0B7FD06C0A53B78
:10014000B1052CF0A4EBB0E002C0A0E0B0E08091DB
:10015000C90228E830E06901C81AD10887FDD394A4
:10016000CC0CDD1CCC0CDD1C0D2C000CEE08FF08AB
:100170008091CA0228E532E0281B310987FD3395BA
:10018000220F331F220F331FA901330F660B770B8A
:100190009A01AB012C193D094E095F090E944D0FD0
:1001A00024EB30E040E050E00E94230FC20ED31E4B
:1001B000E41EF51ED6019091C8029C3098F58091FE
:1001C000C90248E850E0481B510987FD5395440F88
:1001D000551F440F551FA417B5078CF08091CA0214
:1001E00028E532E0281B310987FD3395220F331FA4
:1001F000220F331FAD012A173B070CF4A90142500F
:100200005109440F551F2FB7F894892F90E0FC0136
:10021000EE0FFF1F8E0F9F1FFC01EF52FE4F528308
:1002200041832FBFFF90EF90DF90CF900895FC01A6
:10023000538D448D252F30E0842F90E0821B930B4B
:10024000541710F0CF96089501970895FC01918DF1
:10025000828D981761F0828DDF01A80FB11D5D9628
:100260008C91928D9F5F9F73928F90E008958FEF96
:100270009FEF0895FC01918D828D981731F0828D4A
:10028000E80FF11D858D90E008958FEF9FEF0895A1
:10029000FC01918D228D892F90E0805C9F4F821B05
:1002A00091098F7399270895FC01848DDF01A80FB0
:1002B000B11DA35ABF4F2C91848D90E001968F738E
:1002C0009927848FA689B7892C93A089B1898C91AD
:1002D00080648C93938D848D981306C00288F38973
:1002E000E02D80818F7D80830895EF92FF920F93A0
:1002F0001F93CF93DF93EC0181E0888F9B8D8C8DD2
:10030000981305C0E889F989808185FD24C0F62EFF
:100310000B8D10E00F5F1F4F0F731127E02E8C8D98
:10032000E8120CC00FB607FCFACFE889F989808182
:1003300085FFF5CFCE010E945401F1CF8B8DFE01D8
:10034000E80FF11DE35AFF4FF0820B8FEA89FB891A
:100350008081806207C0EE89FF896083E889F9891E
:1003600080818064808381E090E0DF91CF911F9154
:100370000F91FF90EF900895CF93DF93EC01888D5C
:100380008823C9F0EA89FB89808185FD05C0A88999
:10039000B9898C9186FD0FC00FB607FCF5CF80811F
:1003A00085FFF2CFA889B9898C9185FFEDCFCE0169
:1003B0000E945401E7CFDF91CF91089584E391E04B
:1003C0000E94480121E0892B09F420E0822F089542
:1003D00080E090E0892B29F00E94DE0181110C94CD
:1003E00000000895CF92DF92EF92FF920F931F9338
:1003F000CF93DF936C017A018B01C0E0D0E0CE1582
:10040000DF0589F0D8016D918D01D601ED91FC9148
:100410000190F081E02DC6010995892B11F47E0130
:1004200002C02196ECCFC701DF91CF911F910F91B0
:10043000FF90EF90DF90CF900895089580E090E0D6
:100440000895833081F028F4813099F08230A1F052
:1004500008958730A9F08830B9F08430D1F48091C4
:1004600080008F7D03C0809180008F778093800013
:10047000089584B58F7702C084B58F7D84BD0895BB
:100480008091B0008F7703C08091B0008F7D809302
:10049000B00008951F93CF93DF93282F30E0F90128
:1004A000E454FF4F8491F901E855FF4FD491F901CD
:1004B000EC56FF4FC491CC23C9F0162F81110E9436
:1004C0002102EC2FF0E0EE0FFF1FE657FF4FA59142
:1004D000B4918FB7F894111105C09C91ED2FE09560
:1004E000E92302C0EC91ED2BEC938FBFDF91CF910C
:1004F0001F910895CF93DF9390E0FC01E855FF4FE3
:100500002491FC01EC56FF4F8491882361F190E027
:10051000880F991FFC01E058FF4FC591D491FC0151
:10052000E657FF4FA591B491611109C09FB7F894A8
:100530008881209582238883EC912E230BC0623022
:1005400061F49FB7F8943881822F80958323888344
:10055000EC912E2B2C939FBF06C08FB7F894E881A7
:100560002E2B28838FBFDF91CF910895CF93909149
:10057000C8029C3008F052C0C82F61E00E947A0285
:100580008091C802E82FF0E09F01220F331FE20F95
:10059000F31FEF52FE4FCF739081907CC92BC08325
:1005A0001092C9021092CA026CE00E94C4119CE031
:1005B000899FB001112440E050E09A01260F371FB7
:1005C000F901EE0FFF1F2E0F3F1FF901EF52FE4FF3
:1005D000908196FD16C04F5F5F4F4C30510569F713
:1005E00081110FC01092800082E0809381001092F0
:1005F000850010928400B19A80916F008260809390
:100600006F00E091C802F0E0CF01880F991FE80F5A
:10061000F91FEF52FE4F8081806480838091C80271
:10062000CF9108953FB7F89480912C0190912D01BE
:10063000A0912E01B0912F0126B5A89B05C02F3F98
:1006400019F00196A11DB11D3FBFBA2FA92F982FF8
:100650008827820F911DA11DB11DBC01CD0142E073
:10066000660F771F881F991F4A95D1F708958F92BB
:100670009F92AF92BF92CF92DF92EF92FF926B0167
:100680007C010E9412034B015C01C114D104E104FE
:10069000F104F1F00E941203DC01CB0188199909E1
:1006A000AA09BB09883E9340A105B10570F321E07A
:1006B000C21AD108E108F10888EE880E83E0981E7E
:1006C000A11CB11CC114D104E104F10419F7DDCF60
:1006D000FF90EF90DF90CF90BF90AF909F908F9062
:1006E00008950895CF92DF92EF92FF92CF93DF9318
:1006F000EC010E9412036B017C018FA198A5A9A5B2
:10070000BAA5B701A601481B590B6A0B7B0B8BA13D
:100710009CA1ADA1BEA1481759076A077B0718F134
:100720002A818B859C85AD85BE85222321F001968B
:10073000A11DB11D03C00197A109B1098B879C8739
:10074000AD87BE87E881F9814B855C856D857E85A7
:100750000680F781E02DCE010995CFA2D8A6E9A6A3
:10076000FAA681E001C080E0DF91CF91FF90EF9089
:10077000DF90CF900895CF93DF93EC0161E08B8100
:100780000E947A0261E08C810E947A0261E08D8190
:100790000E947A0261E08E810E947A028EA58F3FCC
:1007A00059F061E00E947A026DA581E068278EA56C
:1007B000DF91CF910C944A02DF91CF910895CF93AE
:1007C000DF93EC01E881F9810480F581E02D60E0A0
:1007D00009958EA58F3F49F061E00E947A026DA5D0
:1007E0008EA5DF91CF910C944A02DF91CF910895AD
:1007F0000F931F93CF93DF9364E170E080E090E06C
:100800000E943703C8ECD2E00BA11CA1C8010E94D2
:10081000DF03C801CF960E94DF036CE370E080E045
:1008200090E00E9437030BA0DCA1C02DCE010E94F6
:10083000BB03CE01CF960E94BB0364E170E080E071
:1008400090E0DF91CF911F910F910C943703DF92CD
:10085000EF92FF920F931F93CF93DF93EC012796B4
:1008600000E010E0E62EF12CDD24D394C701002E29
:1008700002C0959587950A94E2F7688180FD6D2501
:10088000FE01349780810E944A020F5F1F4F21961C
:100890000430110559F7DF91CF911F910F91FF900F
:1008A000EF90DF900895CF93DF9347705527662729
:1008B0007727FA013197EC01A881B981E730F1057A
:1008C00020F4EC5CFF4F0C94D0111496ED91FC9148
:1008D000159761E029C01496ED91FC91159765E09C
:1008E00023C01496ED91FC91159764E01DC01496F9
:1008F000ED91FC91159766E017C01496ED91FC916F
:10090000159762E011C01496ED91FC9115976AE07D
:100910000BC01496ED91FC91159768E005C01496F4
:10092000ED91FC91159769E0DF91CF9109944F9279
:100930005F926F927F92AF92BF92CF92DF92EF92CF
:10094000FF920F931F93CF93DF93EC015A018B011A
:100950002B893C894D895E89B501C8010E94F30F3E
:10096000882309F44CC0CF88D88CE98CFA8C2601F6
:10097000370177FA709477F87094A3019201B5016A
:10098000C8010E94F30F87FD0BC0A7019601B501B6
:10099000C8010E94521118162CF06501780102C09E
:1009A0007301620120E030E0A901C701B6010E9495
:1009B000F30F811105C01BA21CA21DA21EA21BC009
:1009C000A701960160E074E284E799E40E94F80FC1
:1009D0009F770E9471106BA37CA38DA39EA311E04F
:1009E00020E030E0A901C701B6010E94521118169B
:1009F0000CF010E01A83CB8ADC8AED8AFE8ADF9144
:100A0000CF911F910F91FF90EF90DF90CF90BF900B
:100A1000AF907F906F905F904F9008950F93CF931A
:100A2000DF93FC018FE091E091838083138614862D
:100A3000158616861786108A118A128A138A148AD6
:100A4000158A168A80E090E0AAE7B4E4878B908F3D
:100A5000A18FB28F138E148E158E168E80E090E0CB
:100A6000A0E8BFE3878F90A3A1A3B2A313A214A20F
:100A700015A216A2C1E0D0E0D4A7C3A73FEF36A7C6
:100A800017A210A611A612A66383448325830683AA
:100A900017A610AA11AA12AA13AA14AA15AA16AA6E
:100AA00017AA10AE11AE12AE83AF94AFA5AFB6AF1A
:100AB00012821782108611861286CF01DF91CF91A4
:100AC0000F910C94BB032F923F924F925F926F92C3
:100AD0007F928F929F92AF92BF92CF92DF92EF92CE
:100AE000FF920F931F93CF93DF9300D000D0CDB729
:100AF000DEB71C01FC01C784D088E188F2888385B9
:100B00009485A585B685C81AD90AEA0AFB0A6389BD
:100B10007489858996899B01AC010E9457114B010C
:100B20005C01F101638D748D858D968D9B01AC0107
:100B30000E94870F9B01AC01C501B4010E94F80F10
:100B40000E946A10C114D104E104F104A1F46230DE
:100B50007105810591050CF07CC0F10113A214A26E
:100B600015A216A2138A148A158A168A17A610AA25
:100B700011AA12AAFDC0F10107A510A921A932A945
:100B80001C141D041E041F0404F510161106120681
:100B900013064CF46C157D058E059F055CF52281CE
:100BA000211157C027C0011511052105310509F490
:100BB00050C06C157D058E059F050CF04AC0F101F3
:100BC0008281882309F445C039C010161106120627
:100BD0001306FCF40027112798010C191D092E0992
:100BE0003F09601771078207930724F4F1012281FE
:100BF000222379F19B01AC0188279927DC01821B14
:100C0000930BA40BB50BF10187A790ABA1ABB2ABD3
:100C100020C00115110521053105D9F0882499243A
:100C200054018C189D08AE08BF08681579058A051F
:100C30009B057CF4F101828181110BC030952095D8
:100C4000109501951F4F2F4F3F4F07A710AB21ABBA
:100C500032ABF10187A490A8A1A8B2A88114910495
:100C6000A104B10491F483A994A9A5A9B6A987AB5D
:100C700090AFA1AFB2AF81E01C141D041E041F048D
:100C80000CF080E0F10182833FC0F101C7A8D0AC35
:100C9000E1ACF2ACA7019601C701B6010E94870F33
:100CA0002B013C01C501B4010E94A21020E030E0FC
:100CB00040E850E40E94571120E030E040E85FE354
:100CC0000E94870F9B01AC01C301B2010E94F80F83
:100CD0009B01AC01C701B6010E94860F7B018C010C
:100CE000F10163AC74ACC5ACD6AC9301A6010E9413
:100CF0005211181614F073018601A701B801F10111
:100D000047AB50AF61AF72AFFFEF8F1A9F0AAF0AC8
:100D1000BF0AF10187A690AAA1AAB2AA27A930AD5D
:100D200041AD52ADCA01B90129833A834B835C833B
:100D30000E947110F10163A374A385A396A3298176
:100D40003A814B815C8160E074E284E799E40E941F
:100D5000F80FF101638B748B858B968B22812111A7
:100D600007C0DC01CB01B058838B948BA58BB68B6D
:100D70000F900F900F900F90DF91CF911F910F91D7
:100D8000FF90EF90DF90CF90BF90AF909F908F90AB
:100D90007F906F905F904F903F902F9008952F928B
:100DA0003F924F925F926F927F928F929F92AF92FB
:100DB000BF92CF92DF92EF92FF920F931F93CF9348
:100DC000DF93CDB7DEB72C970FB6F894DEBF0FBE1A
:100DD000CDBF1C014A015B0168017901FC018385DB
:100DE0009485A585B6852A013B01481A590A6A0AE5
:100DF0007B0AC301B20177FE07C066277727CB01C4
:100E000064197509860997090E94A210F1012789C2
:100E1000308D418D528D0E94F80F8B018B879C87FE
:100E200020E030E0A9010E945211181624F000E0E1
:100E300010E01B861C869101215C3F4F3A83298379
:100E4000F90183859485A585B685A7019601281BA0
:100E5000390B4A0B5B0BCA01B90157FF07C09095CC
:100E60008095709561957F4F8F4F9F4F0E94A21084
:100E7000E981FA812789308D418D528D0E94F80FCA
:100E80006B837C838D839E8398014B855C850E9458
:100E90005211181634F40B811C81FD81FB872E81C1
:100EA0002C8720E030E0A901B8018B859C850E9449
:100EB000521118160CF074C0C301B2010E94A210A6
:100EC00098014B855C850E94F80FAB01BC01F101D4
:100ED00087859089A189B28988159905AA05BB05DE
:100EE00079F08786908AA18AB28AC1014F83588798
:100EF00069877A870E9463057A85698558854F815D
:100F0000C1010E949704E981FA8183859485A585B2
:100F1000B685A7019601281B390B4A0B5B0BCA014A
:100F2000B9010E94A21098014B855C850E94F80FC0
:100F3000AB01BC01E981FA8187859089A189B289D9
:100F40008C159D05AE05BF0579F0C786D08AE18A6C
:100F5000F28ACF014F83588769877A870E94630599
:100F60007A85698558854F8189819A812C960FB63B
:100F7000F894DEBF0FBECDBFDF91CF911F910F91CF
:100F8000FF90EF90DF90CF90BF90AF909F908F90A9
:100F90007F906F905F904F903F902F900C949704AC
:100FA0002C960FB6F894DEBF0FBECDBFDF91CF9168
:100FB0001F910F91FF90EF90DF90CF90BF90AF9077
:100FC0009F908F907F906F905F904F903F902F9069
:100FD0000895CF92DF92EF92FF920F931F93CF93DA
:100FE000DF93EC018C01015C1F4F4F8558896989A3
:100FF0007A898B859C85AD85BE85481759076A0718
:101000007B0761F08BA19CA1ADA1BEA1892B8A2B8E
:101010008B2B31F0CE010E94720302C080E001C030
:1010200081E0F801C784D088E188F288438554853F
:1010300065857685C416D506E606F70661F083A1B8
:1010400094A1A5A1B6A1892B8A2B8B2B71F2C80183
:101050000E947203CACF8111C8CFDF91CF911F9137
:101060000F91FF90EF90DF90CF9008950E940313AF
:101070001F920F920FB60F9211242F933F934F930D
:101080005F936F937F938F939F93AF93BF93EF93F0
:10109000FF9384E391E00E945401FF91EF91BF918F
:1010A000AF919F918F917F916F915F914F913F9100
:1010B0002F910F900FBE0F901F9018951F920F92B7
:1010C0000FB60F9211242F938F939F93EF93FF935B
:1010D000E0914401F09145018081E0914A01F09155
:1010E0004B0182FD12C0908180914D018F5F8F7303
:1010F00020914E01821751F0E0914D01F0E0EC5C3F
:10110000FE4F958F80934D0101C08081FF91EF913B
:101110009F918F912F910F900FBE0F901F90189558
:101120001F920F920FB60F9211242F933F938F931C
:101130009F93AF93BF938091300190913101A09123
:101140003201B091330130912B0123E0230F2D3771
:1011500020F40196A11DB11D05C026E8230F0296BB
:10116000A11DB11D20932B0180933001909331017B
:10117000A0933201B093330180912C0190912D0105
:10118000A0912E01B0912F010196A11DB11D809358
:101190002C0190932D01A0932E01B0932F01BF91AC
:1011A000AF919F918F913F912F910F900FBE0F9014
:1011B0001F9018951F920F920FB60F9211242F9324
:1011C0003F934F935F936F937F938F939F93AF93CF
:1011D000BF93EF93FF93E0910201F0910301099512
:1011E000FF91EF91BF91AF919F918F917F916F91FF
:1011F0005F914F913F912F910F900FBE0F901F90D5
:1012000018951F920F920FB60F9211242F933F93B0
:101210004F935F936F937F938F939F93AF93BF93FE
:10122000EF93FF93E0910001F09101010995FF9187
:10123000EF91BF91AF919F918F917F916F915F914E
:101240004F913F912F910F900FBE0F901F901895C7
:101250001F920F920FB60F9211242F933F934F932B
:101260005F936F937F938F939F93AF93BF93CF932E
:10127000DF93EF93FF932091F70130E0F901E454FD
:10128000FF4F8491F901E855FF4FD491F901EC56D5
:10129000FF4FC491CC23A1F081110E942102EC2FB9
:1012A000F0E0EE0FFF1FEA58FF4FA591B491EC91CB
:1012B000ED2331E020E009F430E0832F922F02C0CB
:1012C00080E090E02091FB013091FC012F5F3F4FC7
:1012D0003093FC012093FB012091FA01253618F090
:1012E00026E02093F6012091F6012430D9F128F46C
:1012F000223069F02330D9F060C0253009F453C0A2
:10130000263009F05AC021E02093C70253C000974D
:1013100009F053C02091FB013091FC0124363105C6
:1013200008F443C01092C7021092FA011DC0813028
:10133000910509F042C0E091FA0121E02E0F2093BF
:10134000FA01F0E02091FB013091FC01EE0FFF1F4C
:10135000EA50FE4F308727831092FC011092FB0168
:1013600024E029C00097B9F4E091FA0121E02E0FA2
:101370002093FA01F0E02091FB013091FC01EE0F87
:10138000FF1FEA50FE4F308727831092FC01109216
:10139000FB0123E010C02091FB013091FC012536B8
:1013A000310558F007C0009741F41092FC011092EB
:1013B000FB0103C025E02093F6012091F9012223CF
:1013C000B9F0892B51F48091F801882321F08091A4
:1013D000F80161E009C02D9A0BC08091F8018823C3
:1013E00031F08091F80160E00E944A0201C02D981E
:1013F000FF91EF91DF91CF91BF91AF919F918F912D
:101400007F916F915F914F913F912F910F900FBE00
:101410000F901F9018951F920F920FB60F921124E4
:101420002F933F934F935F936F937F938F939F93EC
:10143000AF93BF93EF93FF9380912A0187FF05C07D
:1014400010928500109284001BC020912A01022E68
:10145000000C330B8091F50190E02817390784F4D4
:1014600080912A01082E000C990BFC01EE0FFF1F42
:101470008E0F9F1FFC01EF52FE4F808186FD15C02D
:1014800080912A018F5F80932A0120912A01022EE8
:10149000000C330B8091F50190E028173907C4F454
:1014A00080912A018C3064F113C080912A01082EAA
:1014B000000C990BFC01EE0FFF1F8E0F9F1FFC010C
:1014C000EF52FE4F808160E08F730E944A02D8CFB6
:1014D0008091840090918500049680349C4918F492
:1014E00080E49CE905C08091840090918500049679
:1014F00090938900809388008FEF80932A013BC0EE
:10150000209184003091850080912A01082E000CE2
:10151000990BFC01EE0FFF1F8E0F9F1FFC01EF5276
:10152000FE4F81819281820F931F90938900809357
:10153000880080912A01082E000C990BFC01EE0F07
:10154000FF1F8E0F9F1FFC01EF52FE4F808186FF11
:1015500012C080912A01082E000C990BFC01EE0F9D
:10156000FF1F8E0F9F1FFC01EF52FE4F808161E035
:101570008F730E944A02FF91EF91BF91AF919F91AB
:101580008F917F916F915F914F913F912F910F902C
:101590000FBE0F901F9018952F923F924F925F921F
:1015A0006F927F928F929F92AF92BF92CF92DF9273
:1015B000EF92FF920F931F93CF93DF93CDB7DEB7D8
:1015C000CE57D1090FB6F894DEBF0FBECDBF109233
:1015D00037011092360188EE93E0A0E0B0E08093EE
:1015E000380190933901A0933A01B0933B018BE10C
:1015F00091E0909335018093340185EC90E09093D5
:1016000041018093400184EC90E0909343018093EA
:10161000420180EC90E0909345018093440181EC7D
:1016200090E0909347018093460182EC90E0909384
:1016300049018093480186EC90E090934B018093A0
:101640004A0110924D0110924E0110924F011092DA
:1016500050018091F5018C30A0F491E0980F9093A7
:10166000F5018093C80290E0FC01EE0FFF1F8E0F82
:101670009F1FFC01EF52FE4F88EB9BE0928381831A
:1016800003C08FEF8093C80289E0E82EF12CF0921E
:10169000DD02E092DC0281E090E00E94D61119E0C8
:1016A0001093F7011092F9018093F7011092F9015C
:1016B000AA24A394B12CB092E002A092DF028BE0A6
:1016C00090E09093E2028093E10283E090E09093B7
:1016D000E4028093E302F092E602E092E5028DE0FC
:1016E00090E09093E8028093E70283E190E090938A
:1016F000EA028093E90284E090E09093EE02809306
:10170000ED0285E090E09093F0028093EF028FE08D
:1017100090E09093F2028093F1028EE090E090933B
:10172000F4028093F30285E190E09093F6028093B7
:10173000F50284E190E09093F8028093F70280E153
:1017400090E09093FA028093F90281E190E0909307
:10175000FC028093FB0282E090E09093FE02809373
:10176000FD02109200031092FF02109202031092E9
:1017700001032DED3FEF30930803209307038AE028
:1017800090E090930A038093090330930C03209315
:101790000B0390930E0380930D031092100310928D
:1017A0000F038EE890E00E94D6117C0105E024E052
:1017B00043E062E00E940E0567018FE3C80ED11C72
:1017C00024E043E062E0C6010E940E051701EEE747
:1017D0002E0E311C26E0F10120833701FFE76F0E4A
:1017E000711C87E0F30180834701F0E88F0E911CA4
:1017F00098E0F40190832701F1E84F0E511CF201AB
:10180000108331968AE0808331968BE08083319615
:101810008CE0808331963DE03083319633E0308335
:10182000319632E0308331961082319631E0308348
:101830003196208331969083319694E0908331964F
:1018400080830DE02BE04CE06AE0CE01805C9F4F8E
:101850000E940E05F2010081F3012081F401408114
:10186000F1016081CE0101960E940E0523968FAD95
:101870002397F701828327968CAD9DADAEADBFADAA
:10188000279783839483A583B6832B968CAD9DADD8
:10189000AEADBFAD2B9787839087A187B2872F9678
:1018A0008CAD9DADAEADBFAD2F9783879487A587D7
:1018B000B68763968CAD9DADAEADBFAD63978787A0
:1018C000908BA18BB28B67968CAD9DADAEADBFAD4D
:1018D0006797838B948BA58BB68B6B968CAD9DADE8
:1018E000AEADBFAD6B97878B908FA18FB28F6F9688
:1018F0008CAD9DADAEADBFAD6F97838F948FA58F2F
:10190000B68FA3968CAD9DADAEADBFADA397878FBF
:1019100090A3A1A3B2A3A7968CAD9DADAEADBFAD74
:10192000A79783A394A3A5A3B6A3AB968CAD9DADB7
:10193000AEADBFADAB9787A390A7A1A7B2A7AD9659
:101940008EAD9FADAD9794A783A7AE968FADAE97A2
:1019500085A7AF968FADAF9786A7E3968CAD9DAD6B
:10196000AEADBFADE39787A790ABA1ABB2ABE796A7
:101970008CAD9DADAEADBFADE79783AB94ABA5ABE2
:10198000B6ABEB968CAD9DADAEADBFADEB9787AB77
:1019900090AFA1AFB2AFEF968CAD9DADAEADBFAD88
:1019A000EF9783AF94AFA5AFB6AFEF5BFF4F8B81DF
:1019B00080838C819D81AE81BF81F6018383948376
:1019C000A583B68388859985AA85BB8587839087FB
:1019D000A187B2878C859D85AE85BF8583879487D7
:1019E000A587B68788899989AA89BB898787908BBB
:1019F000A18BB28B8C899D89AE89BF89838B948B97
:101A0000A58BB68B888D998DAA8DBB8D878B908F7A
:101A1000A18FB28F8C8D9D8DAE8DBF8D838F948F56
:101A2000A58FB68F88A199A1AAA1BBA1878F90A3EA
:101A3000A1A3B2A38CA19DA1AEA1BFA183A394A396
:101A4000A5A3B6A388A599A5AAA5BBA587A390A77A
:101A5000A1A7B2A78CA59DA594A783A7BD968EA587
:101A6000808331968FA5808388A999A9AAA9BBA94B
:101A7000F60187A790ABA1ABB2AB8CA99DA9AEA98B
:101A8000BFA983AB94ABA5ABB6AB88AD99ADAAADFE
:101A9000BBAD87AB90AFA1AFB2AF8CAD9DADAEADDE
:101AA000BFAD83AF94AFA5AFB6AFF092EC02E092BA
:101AB000EB02B092E002A092DF02C258DF4F0FB6F5
:101AC000F894DEBF0FBECDBFDF91CF911F910F9174
:101AD000FF90EF90DF90CF90BF90AF909F908F904E
:101AE0007F906F905F904F903F902F9008957894E3
:101AF00084B5826084BD84B5816084BD85B5826013
:101B000085BD85B5816085BD80916E0081608093C3
:101B10006E0010928100809181008260809381002C
:101B2000809181008160809381008091800081603C
:101B3000809380008091B10084608093B100809197
:101B4000B00081608093B00080917A0084608093BF
:101B50007A0080917A00826080937A0080917A0086
:101B6000816080937A0080917A00806880937A0007
:101B70001092C100C091EB02D091EC0240E050E025
:101B80006CE072E4CE010E94970440E050E06CE00B
:101B900072E4CE01CF960E9497042FB7F8948091FB
:101BA000300190913101A0913201B09133012FBFEA
:101BB00090930203809301038091DF029091E002F1
:101BC0000197C1F58091E3029091E4020E94B60270
:101BD00080910D0390910E030E94930060E080912C
:101BE000ED020E947A0260E08091EF020E947A0288
:101BF00060E08091F1020E947A0260E08091F3023D
:101C00000E947A0260E08091F5020E947A0260E010
:101C10008091F7020E947A0260E08091F9020E94AE
:101C20007A0260E08091FB020E947A0261E080917A
:101C3000FD0212C083E0809304018091E102909143
:101C4000E2020E94B6028091090390910A030E9469
:101C5000930061E08091E7020E947A02C091EB025A
:101C6000D091EC0220E030E041E654E46F89788DB9
:101C7000898D9A8D0E94F30F8823D1F180E090E046
:101C8000A1E6B4E48F8B988FA98FBA8F8EE893EE7C
:101C9000AAE8B4E48BAF9CAFADAFBEAF8FA598A957
:101CA000A9A9BAA9181619061A061B060CF56B89FC
:101CB0007C898D899E899B01AC010E9457116B0123
:101CC0007C016B8D7C8D8D8D9E8D9B01AC010E9466
:101CD000870F9B01AC01C701B6010E94F80F0E945B
:101CE0006A106FA778AB89AB9AABCE010E946305EF
:101CF000EF9620E030E041E654E46F89788D898DDD
:101D00009A8D0E94F30F8823D1F180E090E0A1E644
:101D1000B4E48F8B988FA98FBA8F8EE893EEAAE8E0
:101D2000B4E48BAF9CAFADAFBEAF8FA598A9A9A906
:101D3000BAA9181619061A061B060CF56B897C89B8
:101D40008D899E899B01AC010E9457116B017C011A
:101D50006B8D7C8D8D8D9E8D9B01AC010E94870FBC
:101D60009B01AC01C701B6010E94F80F0E946A10E6
:101D70006FA778AB89AB9AABCE010E946305C09187
:101D8000EB02D091EC0240E050E066E973E4CE0152
:101D90000E94970440E050E066E973E4CE01CF96DC
:101DA0000E949704C091EB02D091EC02CE010E94F8
:101DB000BB03CE01CF960E94BB030E94F80304E050
:101DC00011E020E030E04CEF5EEF6FEF7FEF8091AD
:101DD000EB029091EC020E94CF068091EB02909171
:101DE000EC020E94E907E091EB02F091EC0213860D
:101DF0001486158616861786108A118A128A17A6E7
:101E000010AA11AA12AA13A214A215A216A2138A2A
:101E1000148A158A168AFF961386148615861686E6
:101E20001786108A118A128A17A610AA11AA12AA56
:101E300013A214A215A216A2138A148A158A168A4E
:101E40000E94E801BACF052E97FB1EF400940E9471
:101E50003A0F57FD07D00E94550F07FC03D04EF4F0
:101E60000C943A0F50954095309521953F4F4F4F28
:101E70005F4F089590958095709561957F4F8F4F36
:101E80009F4F08950E94770FA59F900DB49F900DCE
:101E9000A49F800D911D11240895B7FF0C94420F4B
:101EA0000E94420F821B930B0895A1E21A2EAA1BD7
:101EB000BB1BFD010DC0AA1FBB1FEE1FFF1FA217FA
:101EC000B307E407F50720F0A21BB30BE40BF50BF7
:101ED000661F771F881F991F1A9469F76095709580
:101EE000809590959B01AC01BD01CF010895A29F03
:101EF000B001B39FC001A39F700D811D1124911DDE
:101F0000B29F700D811D1124911D08955058BB275B
:101F1000AA270E949E0F0C9418110E940A1138F0F3
:101F20000E94111120F039F49F3F19F426F40C940B
:101F300007110EF4E095E7FB0C940111E92F0E94C4
:101F4000291158F3BA17620773078407950720F021
:101F500079F4A6F50C944B110EF4E0950B2EBA2FE4
:101F6000A02D0B01B90190010C01CA01A00111249F
:101F7000FF27591B99F0593F50F4503E68F11A164B
:101F8000F040A22F232F342F4427585FF3CF4695DC
:101F900037952795A795F0405395C9F77EF41F16FE
:101FA000BA0B620B730B840BBAF09150A1F0FF0FC8
:101FB000BB1F661F771F881FC2F70EC0BA0F621FB4
:101FC000731F841F48F4879577956795B795F795A4
:101FD0009E3F08F0B0CF9395880F08F09927EE0F39
:101FE0009795879508950E94DD1008F481E0089583
:101FF0000E940C100C9418110E94111158F00E94AC
:102000000A1140F029F45F3F29F00C94011151119D
:102010000C944C110C9407110E94291168F3992318
:10202000B1F3552391F3951B550BBB27AA276217D4
:102030007307840738F09F5F5F4F220F331F441FE1
:10204000AA1FA9F335D00E2E3AF0E0E832D0915015
:102050005040E695001CCAF72BD0FE2F29D0660F02
:10206000771F881FBB1F261737074807AB07B0E845
:1020700009F0BB0B802DBF01FF2793585F4F3AF04B
:102080009E3F510578F00C9401110C944C115F3F68
:10209000E4F3983ED4F3869577956795B795F795D1
:1020A0009F5FC9F7880F911D9695879597F90895B9
:1020B000E1E0660F771F881FBB1F62177307840755
:1020C000BA0720F0621B730B840BBA0BEE1F88F764
:1020D000E09508950E9471106894B1110C944C1110
:1020E00008950E94311188F09F5798F0B92F9927D1
:1020F000B751B0F0E1F0660F771F881F991F1AF0F3
:10210000BA95C9F714C0B13091F00E944B11B1E0FB
:1021100008950C944B11672F782F8827B85F39F0FA
:10212000B93FCCF3869577956795B395D9F73EF48B
:1021300090958095709561957F4F8F4F9F4F089533
:10214000E89409C097FB3EF4909580957095619551
:102150007F4F8F4F9F4F9923A9F0F92F96E9BB2707
:102160009395F695879577956795B795F111F8CF83
:10217000FAF4BB0F11F460FF1BC06F5F7F4F8F4FEE
:102180009F4F16C0882311F096E911C0772321F0E4
:102190009EE8872F762F05C0662371F096E8862F7C
:1021A00070E060E02AF09A95660F771F881FDAF7D3
:1021B000880F9695879597F90895990F0008550F00
:1021C000AA0BE0E8FEEF16161706E807F907C0F0BD
:1021D00012161306E407F50798F0621B730B840BC5
:1021E000950B39F40A2661F0232B242B252B21F49F
:1021F00008950A2609F4A140A6958FEF811D811D3F
:10220000089597F99F6780E870E060E008959FEF78
:1022100080EC089500240A9416161706180609067D
:10222000089500240A94121613061406050608954C
:10223000092E0394000C11F4882352F0BB0F40F4D4
:10224000BF2B11F460FF04C06F5F7F4F8F4F9F4F14
:10225000089557FD9058440F551F59F05F3F71F096
:102260004795880F97FB991F61F09F3F79F08795FD
:102270000895121613061406551FF2CF4695F1DF86
:1022800008C0161617061806991FF1CF8695710516
:10229000610508940895E894BB2766277727CB014A
:1022A00097F908950E94DD1008F48FEF08950E94B9
:1022B0006A110C9418110E940A1138F00E94111131
:1022C00020F0952311F00C9401110C9407111124A6
:1022D0000C944C110E94291170F3959FC1F3950F36
:1022E00050E0551F629FF001729FBB27F00DB11D9A
:1022F000639FAA27F00DB11DAA1F649F6627B00D2A
:10230000A11D661F829F2227B00DA11D621F739F12
:10231000B00DA11D621F839FA00D611D221F749F20
:102320003327A00D611D231F849F600D211D822F67
:10233000762F6A2F11249F5750409AF0F1F088238E
:102340004AF0EE0FFF1FBB1F661F771F881F9150BB
:102350005040A9F79E3F510580F00C9401110C9458
:102360004C115F3FE4F3983ED4F3869577956795DB
:10237000B795F795E7959F5FC1F7FE2B880F911DE5
:102380009695879597F90895991B79E004C0991F50
:10239000961708F0961B881F7A95C9F780950895BF
:1023A000EE0FFF1F0590F491E02D0994CF93DF937A
:1023B0008230910510F482E090E0E0911303F091F7
:1023C000140320E030E0C0E0D0E0309711F140810C
:1023D000518148175907C0F04817590761F48281A5
:1023E0009381209719F09B838A832BC090931403C9
:1023F0008093130326C02115310519F042175307A6
:1024000018F49A01BE01DF01EF010280F381E02D93
:10241000DCCF2115310509F1281B390B243031059A
:1024200090F412968D919C9113976115710521F08E
:10243000FB019383828304C090931403809313035E
:10244000FD01329644C0FD01E20FF31F8193919389
:10245000225031092D933C933AC0209111033091C1
:102460001203232B41F4209107013091080130938E
:1024700012032093110320910501309106012115CB
:10248000310541F42DB73EB74091090150910A0141
:10249000241B350BE0911103F0911203E217F307AF
:1024A000A0F42E1B3F0B2817390778F0AC014E5FC4
:1024B0005F4F2417350748F04E0F5F1F50931203EC
:1024C000409311038193919302C0E0E0F0E0CF01CB
:1024D000DF91CF9108950F931F93CF93DF930097D0
:1024E00009F48CC0FC01329713821282009113030D
:1024F000109114030115110581F420813181820F9F
:10250000931F20911103309112032817390779F591
:10251000F0931203E093110371C0D80140E050E042
:10252000AE17BF0750F412962D913C911397AD0151
:102530002115310509F1D901F3CF9D01DA0133836A
:10254000228360817181860F971F8217930769F438
:10255000EC0128813981260F371F2E5F3F4F3183D1
:1025600020838A819B8193838283452B29F4F09376
:102570001403E093130342C01396FC93EE93129757
:10258000ED01499159919E01240F351FE217F30780
:1025900071F480819181840F951F029611969C930E
:1025A0008E938281938113969C938E931297E0E091
:1025B000F0E0D80112968D919C911397009719F035
:1025C000F8018C01F6CF8D919C9198012E5F3F4FC1
:1025D000820F931F2091110330911203281739079E
:1025E00069F4309729F4109214031092130302C077
:1025F000138212821093120300931103DF91CF9183
:102600001F910F91089581E090E0F8940C940813C5
:04261000F894FFCF6C
:10261400710371030100001503800000000000DF56
:1026240003BB0327045304000000007501F20117E3
:0A26340001BC01480126013A010033
:00000001FF
